:020000040800F2
:100000009007002081020008396700086D5E000833
:1000100085650008A91E0008298D00080000000061
:10002000000000000000000000000000858B0008B8
:100030005543000800000000A9760008218C000844
:100040009B0200089B0200089B0200089B0200081C
:100050009B0200089B0200089B0200089B0200080C
:100060009B0200089B0200089B0200089B020008FC
:100070009B0200089B0200089B0200089B020008EC
:100080009B0200089B0200089B0200089B020008DC
:100090009B0200089B0200089B0200089B020008CC
:1000A0009B0200089B0200089B0200089B020008BC
:1000B0009B0200089B0200089B0200089B020008AC
:1000C0009B0200089B0200089B0200089B0200089C
:1000D0009B0200089B0200089B0200089B0200088C
:1000E0009B0200089B0200089B0200089B0200087C
:1000F0009B0200089B0200089B0200089B0200086C
:100100009B0200089B0200089B0200089B0200085B
:100110009B0200089B0200089B0200089B0200084B
:100120009B0200089B0200089B0200089B0200083B
:1001300000F002F800F094F80AA090E8000C824465
:100140008344AAF10107DA4501D100F089F8AFF242
:10015000090EBAE80F0013F0010F18BFFB1A43F0A5
:100160000103184784080200A4080200103A24BFC3
:1001700078C878C1FAD8520724BF30C830C144BF0C
:1001800004680C607047000000230024002500264E
:10019000103A28BF78C1FBD8520728BF30C148BFEA
:1001A0000B6070476E2900F0A784702900F0F1857C
:1001B00066291EF0B38265291EF0B08267291EF001
:1001C000AD8261291EF0AC8203681B0A28BF41F092
:1001D0008001692900F05484642900F05184752954
:1001E00000F04E846F2900F07F85782900F0BD85EE
:1001F000E92900F01985E42900F01685F52900F0B9
:100200001385EF2900F07C85F82900F0BC85036890
:10021000DB0928BF41F08001632901F025837329A0
:1002200001F02A83E32901F03583F32901F03A83B1
:10023000002070471FB59DE8030000F055FB00F05B
:10024000B9FE0400002000211CF0CEFC401C6060C0
:10025000002000211CF0DEFCE0601FBD10B510BDC9
:1002600001F054FB1146FFF7E5FF09F059FB01F0DF
:1002700025FC03B4FFF7F2FF03BC00F005FB000010
:100280000948804709480047FEE7FEE7FEE7FEE72A
:10029000FEE7FEE7FEE7FEE7FEE7FEE70448054966
:1002A000054A064B70470000918C00083101000898
:1002B0009001002090070020900300209003002070
:1002C00070B5A0FB0140B4F1805170F1000024BF73
:1002D000002070BD204600F036FB05001CBF214603
:1002E00000F045FA284670BD70B50446051F00F0C1
:1002F000DBFA0068002C14BF446870BD002C18BFE6
:10030000AC423CBF20466468F8D301680A18AA4290
:1003100018BF456003D12A6805461144016028686A
:100320004119A1421CBF6C6070BD616869602168A1
:100330000844286070BD70B50D460646041F00F0E5
:10034000B3FA0268BDB1DEB105F10B0020F0070180
:10035000A9423CBF002070BD23688B4238BF506863
:1003600013D35A1A082A36D3601840F8042B216098
:10037000FFF7BAFF2FE03046FFF7B6FF002070BD51
:100380002846BDE8704000F0DEBA002818BFA04241
:100390003CBF02464068F8D303EB040C84451CD1F3
:1003A000D0F800C06344994217D8A3EB010CBCF10C
:1003B000080F0DD3D0F804C06318C3F804C0D4F8F4
:1003C00000C000686044401A18602160536002E079
:1003D000236040685060201D70BD284600F0B3FACD
:1003E000050008D031462068021F284600F085F934
:1003F000201DFFF779FF284670BD53EA020C00F07C
:1004000069802DE9F04B4FF00006002B1FBFB3FAB7
:1004100083F503FA05F424FA05F65E4012BF16438D
:10042000B2FA82F502FA05F4C5F120051EBF22FAE0
:1004300005FC44EA0C04203556EA044C4FEA144407
:1004400018BF641C4FF000084FF00009904271EB98
:10045000030C39D3002919BFB1FA81F701FA07F665
:10046000B0FA80F700FA07F6C7F120071EBF20FA9E
:1004700007FC46EA0C062037B6FBF4FCA7EB0507A1
:10048000103F07F01F0BCBF120062CFA06F60CFAF2
:100490000BFB44BFB3460026202FA4BF5E464FF09F
:1004A000000B5BEA060C08BF4FF0010B19EB0B09C0
:1004B00048EB0608ABFB027C06FB02CC0BFB03CC33
:1004C000C01B71EB0C01C1E70B4602464146484692
:1004D000BDE8F08B13B5084318BF4FF0FF3001465D
:1004E000AFF30080BDE81C40704753EA020C23D0F4
:1004F00010B54C1084EA530404D54042C1F1000108
:1005000038BF491E1B4204D55242C3F1000338BF15
:100510005B1EFFF772FF14F0804F04D04042C1F120
:10052000000138BF491E14F0004F04D05242C3F1FD
:10053000000338BF5B1E10BD13B540424FF00000F2
:1005400070EB0104B8BF012001F0004100281CBF7E
:100550006FF000414FF0FF30AFF300801CBD000092
:100560007CB51D4616460C00009001D02044401E6C
:10057000074B7B442A4669460190304600F0D5FA85
:1005800005461CB10020694600F0E2FA28467CBD11
:10059000E505000040EA010310B59B070FD1042ACE
:1005A0000DD310C808C9121F9C42F8D020BA19BA3E
:1005B000884201D9012010BD4FF0FF3010BD1AB1A3
:1005C000D30703D0521C07E0002010BD10F8013BF8
:1005D00011F8014B1B1B07D110F8013B11F8014B1F
:1005E0001B1B01D1921EF1D1184610BD032A40F207
:1005F000308010F0030C00F0158011F8013BBCF1C5
:10060000020F624498BF11F801CB00F8013B38BFDC
:1006100011F8013BA2F1040298BF00F801CB38BFEA
:1006200000F8013B11F0030300F06780083AC0F0C6
:10063000088051F8043B083A51F804CBA0E80810B0
:10064000F5E7121D5CBF51F8043B40F8043BAFF3E3
:100650000080D20724BF11F8013B11F801CB48BF3D
:1006600011F8012B24BF00F8013B00F801CB48BF73
:1006700000F8012B7047431A28BF9A427FF6B6AFA5
:1006800010441144032A40F2268010F0030F1EBFCD
:1006900011F8013D521E00F8013D10F0030F7FF4E8
:1006A000F6AF11F0030300F05684083AC0F00B8057
:1006B00051F8043D083A51F804CD40F8043D40F8A3
:1006C00004CDFFF7F3BF121D5CBF51F8043D40F8A5
:1006D000043DAFF30080D20724BF11F8013D11F8AB
:1006E00001CD48BF11F8012C24BF00F8013D00F8EE
:1006F00001CD48BF00F8012C704710B5203AC0F07A
:100700000B80B1E81850A0E81850B1E81850A0E8E4
:100710001850203ABFF4F5AF5FEA027C24BFB1E87D
:100720001850A0E8185044BF18C918C0BDE81040C0
:100730005FEA827C24BF51F8043B40F8043B08BFC9
:100740007047D20728BF31F8023B48BF11F8012B90
:1007500028BF20F8023B48BF00F8012B704702F089
:10076000FF0343EA032242EA024200F002B84FF0DC
:1007700000020429C0F0128010F0030C00F01B806E
:10078000CCF1040CBCF1020F18BF00F8012BA8BF7C
:1007900020F8022BA1EB0C0100F00DB85FEAC17C40
:1007A00024BF00F8012B00F8012B48BF00F8012BF3
:1007B00070474FF0000200B5134694469646203924
:1007C00022BFA0E80C50A0E80C50B1F12001BFF40A
:1007D000F7AF090728BFA0E80C5048BF0CC05DF870
:1007E00004EB890028BF40F8042B08BF704748BFBE
:1007F00020F8022B11F0804F18BF00F8012B704732
:100800004FF0013C50F8042B51F8043B9A4221D19F
:10081000A2EB0C03934313EACC1317D150F8042B2B
:1008200051F8043B9A4215D1A2EB0C03934313EA0F
:10083000CC130BD150F8042B51F8043B9A4209D148
:10084000A2EB0C03934313EACC13DBD04FF0000070
:10085000704700BFD01A01BAB1FA81F101F0180156
:1008600022FA01F0CB40DBB2C0B2C01AC1F12001C4
:100870002CFA01F3D11A914311EAC311E6D1704762
:10088000704770477047000001491820ABBEFEE773
:10089000260002007047000010B500F08BFB001D21
:1008A00010BD00BF45C3010000487047280100206B
:1008B000004870472001002070477047704770471C
:1008C00038B504460A4600206946AFF30080002888
:1008D00008BF38BD02460099204600F076FB012093
:1008E00038BD012001F00BB8F8B5AFF30080054624
:1008F00000200C46102000BF0646A819A0420DD9C2
:10090000324669460020AFF30080070008BF00F0C0
:10091000F6FF0098A04218BF0546C419FFF7C4FFB0
:1009200005600746F01D20F007004619284600F034
:1009300045FBB44208BFF8BDA21B31463868BDE88C
:10094000F84000F042BB70B50646FFF7ADFF056802
:1009500006F10B0020F00704B4429CBF002070BDDC
:100960002B466A68BAB11068A04210D304F108019E
:1009700088423CBF5068586007D3516810194160E5
:100980001168091B016058601460101D70BD13468A
:100990005268002AE7D121462846FFF791FF002838
:1009A000DED170BD10B5FFF783FF006810BD10B534
:1009B0000446FFF77DFF046010BD70B504468569ED
:1009C0000068C10601D5302600E02026C00707D008
:1009D00070BDD4E9012130469047206A401C206256
:1009E0006D1EF6D570BD70B5044685690078C007E8
:1009F00007D170BDD4E9012120209047206A401C16
:100A000020626D1EF6D570BD09684A0501D540B259
:100A10007047C905FCD500B2704709684A0501D581
:100A2000C0B27047C905FCD580B2704770B50C469E
:100A30000546012A05D02878800600D5EA690023FA
:100A400002E0012305E05B1C934202D2E05C002837
:100A5000F9D1A869E618C01AA861286A1844286262
:100A60002846FFF7AAFF04E0D5E9012114F8010B9D
:100A70009047B442F8D32846FFF7B5FF70BD000099
:100A80002DE9F0410646002410687529314616A567
:100A900010D0FFF7B9FF002802DA404213A507E0A3
:100AA00031688A0701D512A502E0490704D511A5CE
:100AB000012401E0FFF7B1FF00210A2206F124071B
:100AC00009E0B0FBF2FCB0FBF2F302FB1C0030309B
:100AD00078541846491C0028F3D123462A4630464C
:100AE000BDE8F04100F0D0BA000000002D00000089
:100AF0002B0000002000000011680268006A530506
:100B000001D508700AE0D30501D5088006E0130678
:100B100003D5C217C1E9000200E008600120704758
:100B200001694A1C02610878704700B58FB0CDE9B1
:100B300001310021059105497944CDE903101146A1
:100B4000684600F031F90FB000BD0000E5FFFFFF7F
:100B50000A6802F8010B0A607047D1E900239A4243
:100B600002D2531C0B601070704700002DE9FF5F2C
:100B700015468A460446DFF8AC80F8440027D8E9D9
:100B800000103E46CDE9001010E03AF816106A4613
:100B900002A800F08BFE411C07D02178890603D5FE
:100BA000E269391891420DD80744761C20788006F6
:100BB00002D5E069B84205DDAE42E6DB3AF8160040
:100BC0000028E2D1A069C01BA0612046FFF7F5FE16
:100BD000D8E90010CDE90010002017E03AF818100D
:100BE0006A4602A800F062FEB0F1FF3F81460BD0DA
:100BF00000250DF1080B05E0D4E901211BF80500E3
:100C000090476D1C4D45F7D308F10100B042804676
:100C1000E4DB206A384420622046FFF7E4FEBDE8AA
:100C2000FF9F0000A6DB01002DE9F0418046D21DA8
:100C300022F007020025D2E90002F52915A614D0FA
:100C4000011E72F1000106DA0023D0EB030063EB12
:100C5000020211A608E0D8F800108B0701D50FA6F4
:100C600002E0490701D50EA601251146002408F12E
:100C7000240704E000F0C3F930323A55641C50EA0E
:100C80000102F7D12B46324621464046BDE8F041ED
:100C900000F0FAB9000000002D0000002B00000059
:100CA0002000000030B4002100F1240408E002F02C
:100CB0000705D208303542EA4372DB086554491C07
:100CC00052EA0305F3D10468002310A2250708D5D2
:100CD00004F020040C4304D0C46901230CA2641E58
:100CE000C46130BC00F0D0B910B50446214610688C
:100CF000FFF793FE02462046BDE810400023D1E7EF
:100D0000D21D22F00701D1E90023CBE7000000004B
:100D100030000000F0B40D460188090502D5214CD1
:100D20007C4402E01F4C7C440E34002100F1240678
:100D300008E002F00F071209E75D42EA03721B099F
:100D40007754491C52EA0307F3D1027800231207B3
:100D500004D5702D06D009B1022311342246F0BC0F
:100D600000F092B901231034F8E770B504460D463F
:100D700021461068FFF751FE024629462046BDE88D
:100D800070400023C6E7D21D22F00703D3E90023F9
:100D9000C0E70368126843F0200303600823C361BF
:100DA0000023B7E708DA01002DE9F05F8946044621
:100DB0004FF0000ADFF874B1FB44C0F820A02046D1
:100DC000E1688847002874D0252806D0D4E901219D
:100DD0009047206A401C2062F1E700265F462046CB
:100DE000E16888472028054607DB312D05D27819B0
:100DF00010F8200C08B10643F1E7B00701D526F042
:100E00000406C4F81CA00027C4F818A02A2D09D095
:100E100028461BF0EFFC38B304EB8708303DC8F8D8
:100E2000185019E059F8041B204604EB8702916121
:100E3000E1688847012F054618D1E069002820DACB
:100E400026F020061DE0D8F8180000EB800005EB26
:100E500040003038C8F818002046E1688847054649
:100E60001BF0C8FC0028EED1012F0AD02E2D08D18E
:100E70002046E16888477F1C0546022F46F0200681
:100E8000C4DBA069002803DA404246F00106A061F5
:100E9000F00701D026F010066C2D0BD0682D09D07C
:100EA0004C2D39D06A2D35D0742D35D07A2D33D0D4
:100EB00016E038E0E1682F4620468847B8420546EC
:100EC00009D16C2F26D04FF48060E168064320469C
:100ED0008847054604E06C2F1AD04FF48070064313
:100EE0000DB3A5F14100192802D8203546F400665B
:100EF0004A462946204626604E46FFF753F980B100
:100F000001280BD0F61D26F0070000F1080956E76E
:100F10004020E4E78020D8E70020D6E706F1040966
:100F20004DE7284652E7206ABDE8F09F98D90100B6
:100F3000431A28BF9A427FF6E0AB1044114410F0E8
:100F4000030F1EBF11F8013D521E00F8013D10F0C5
:100F5000030F7FF4F6AF103AC0F00A8010B531E904
:100F6000185020E91850103ABFF4F9AFBDE810400E
:100F7000530724BF31E9081020E9081044BF51F895
:100F8000043D40F8043D12F0030F08BF7047D2073C
:100F900028BF31F8023D48BF11F8012C28BF20F8C6
:100FA000023D48BF00F8012C704700000048704720
:100FB000200100200048704740010020002101600E
:100FC000C0E90110704710207047034640688C4606
:100FD000002818BF88423CBF03464068F8D3186811
:100FE0001844884207D00CF1030020F00700001DD0
:100FF000411A521A0146081D0A60FFF775B930B54B
:10100000B0F10A0271F100034FEA900E4EEA817EC0
:10101000B0EB0E0061EB91014FEA101E4EEA017E2B
:1010200010EB0E0041EB11114FEA102E4EEA016E4B
:1010300010EB0E0041EB11214FEA104E4EEA014E2B
:1010400010EB0E0041EB1141401841F100014FEA55
:10105000D00040EA41704FEAD1014FEA810444EAEE
:10106000907410EB800544EB01046D1944EB04040B
:10107000521BA3414FF0000348BF0A3200D530BDD8
:10108000401C41F1000130BD2DE9F0470D46994665
:101090009246044600F124080168880604D5E069F8
:1010A00021F01001216000E00120A84201DD471B72
:1010B00000E00027A1697A1902EB0900081AA06173
:1010C0002078C00602D42046FFF777FC002608E00F
:1010D000D4E901211AF806009047206A401C761CCA
:1010E00020624E45F4DB2078C0060AD52046FFF783
:1010F00064FC06E0D4E9012130209047206A401CBE
:101100002062381EA7F10107F4DC07E0D4E90121D1
:1011100018F805009047206A401C2062281EA5F19F
:101120000105F3DC2046FFF75EFC2078000602D5BF
:101130000220BDE8F0870120FBE72DE9FF4F0C46B8
:101140001E464FF0FF378BB0D2E90001DDF860801A
:101150000A908A46C1F30A5505B93D460021084662
:101160004FF00000BAF1000F00F4400005DA00EB88
:1011700080004FF4400101EA50004FEA9059B9F164
:10118000010F00DDB9460A9850EA4A000ED044F635
:101190001050A5F2FF3545432F14B8F1000F1ED0B3
:1011A0007542291E1EDDC9F100021CE0B8F1010FD5
:1011B0004FF0000001D0302103E0F24305E021545C
:1011C000401CB042FBDB30460022002121540B9929
:1011D000C1F80880C1E900200FB0BDE8F08FBD1B49
:1011E0006D1CDEE74A4600DA694206A800F0F4FB0F
:1011F00006AB93E8070003AB83E8070050460A9963
:101200001AF01CFF8DE80700A0F500501F38009071
:101210000398002D0ADD42F21F014A4608440023CC
:1012200003A9039068461BF085F909E0A0F500507A
:101230004A461F38002303A9039068461BF08FF924
:101240008DE807000004000C03D04FF0FF30410888
:1012500000E01046B8F1000F03D0002200921546BE
:101260001EE0751E05D4FFF7CAFE303262556D1EB2
:10127000F9D5B3460122084302D000227F1C04E0C6
:101280002078302801D100227F1E002A099784D0BF
:101290001DE0112D07DAFFF7B2FE303262556D1CEA
:1012A00050EA0102F5D1084302D00098C8B10EE01F
:1012B0000021681E05E0235C625C63542254401EDA
:1012C000491C8142F7DBAB46A81B401E0990002059
:1012D00004F80B000B98099AC0F80880C0E9002BAD
:1012E0007AE711264FF0000857E72DE9F04F8846BE
:1012F0000446D21D22F0070191B0D1E90001CDE9E9
:101300000A011BF063FA02460B98C00F01D02D2092
:1013100007E02068810701D52B2002E0202101EAA7
:10132000C000032A099001D0072A05DB0346414685
:10133000204600F011FB0BE12078800601D5E06922
:1013400000E00620B8F1650F814606D0B8F1660FBF
:1013500018D0B8F1670F70D131E00020B9F1110F4A
:10136000009001DB112301E009F101030AAA01A9A0
:101370000CA8FFF7E2FEDDE90C70002609F101057B
:10138000834647E001204B4600904FF000470AAAF1
:1013900001A90CA8FFF7D1FEDDE90DB00C995D465F
:1013A000002610B909F101000D18B9EB050003D4AE
:1013B000C0F1FF3609F10105A5EB09002BE0B9F1F9
:1013C000010F01DA4FF001090020B9F1110F00906F
:1013D000484601DD112300E003460AAA01A90CA832
:1013E000FFF7ABFEDDE90C704D4600268346207802
:1013F00000070AD4AB4500DA5D4601A8012D04DDE3
:10140000411911F8011C302907D04F4502DA17F1B4
:10141000040F04DA012082460FE06D1EEEE7002F74
:1014200002DCED1B3E4403E0781CA84200DD7D1C7D
:10143000B81B00F1010A4FF000472078000703D4E1
:10144000AA4501DB4FF0FF3A0021B7F1004F0DF143
:1014500043088DF8431024D002202B23002F01DAFB
:101460007F422D230A21021EA0F1010000DC5FB1A2
:1014700097FBF1FC97FBF1F201FB1C7C17460CF18A
:10148000300C08F801CDEEE7A8F1010003702188C7
:10149000090501D5452100E06521A0F1010800F80A
:1014A000011C09980FA9A1EB0807FF1D00B101203D
:1014B000411901EBEA70A1693844081A401EA06185
:1014C0002078C00602D42046FFF777FA099828B1A1
:1014D000D4E901219047206A401C20622078C00690
:1014E00022D52046FFF769FA1EE0002E04DBB34543
:1014F00002DD01A8805D00E03020D4E901219047A1
:10150000206A401C2062761CAAF101005FEA000AF2
:101510000AD1FFF74FFDC0680168405CD4E90121A2
:101520009047206A401C2062281EA5F10105DCDCE2
:1015300007E0D4E9012118F8010B9047206A401C0C
:101540002062381EA7F10107F3DC2046FFF74BFAB3
:10155000032011B041E600002DE9F04F04460D468E
:10156000D21D22F0070089B0D0E9009748463946DD
:101570001BF02CF90246F80F01D02D2307E020685C
:10158000810701D52B2302E0202101EAC0038DF859
:1015900020300BB1012000E00020032A824601D058
:1015A000072A04DB2946204600F0D6F93FE12078DF
:1015B000800601D40D2500E0E569C7F30A560D2D1C
:1015C00049DA00214FEA175B08464FF00000002F70
:1015D00000F4400007DA00EB80004FF4400100EB1C
:1015E000D07001EA60008115012901DD4FF0FF3163
:1015F00000224FEA850CBCF1180F06D31346ACF15C
:1016000018004FF08052C24003E04FF4801323FAD9
:101610000CF30CF10C0CBCF1200F04D3ACF1200C3A
:1016200009FA0CF001E007FA0CF000294FF000482D
:1016300001DD18B90FE00ED140450CD319EB0209BA
:101640005F4121B9404502D19F4329EA0209BBEB22
:10165000175F00D0761C2088000502D57B487844AF
:1016600002E07A487844193808AA302302F80A3090
:10167000037C0AF10101002E0AF1020A53546A4662
:1016800002DC4FF0300101E04FF031014FF0010872
:101690008DF8001002D0A6F2FF3603E059EA4701A8
:1016A00000D06B4E002D02DC2178090704D54FF0E5
:1016B00002082E218DF80110C44600210BE0C7F36B
:1016C00003433F01C35C491C6D1E02F80830052925
:1016D00008F1010801DA002DF1DC00210CE000EB3B
:1016E0001973491C1B786D1E082902F808304FEA4F
:1016F000091908F1010801DA002DF0DC21688B06D8
:1017000002D516E0A8F10108E04505DD02EB08036B
:1017100013F8013C302BF5D0B8F1000F09DD02EBD6
:10172000080313F8013C2E2B03D1090701D4A8F1BB
:101730000108002D05DD3E2102F808106D1E08F19C
:101740000108407C002E02F8080008F1010804DAC4
:101750002D20764202F8080002E02B2002F8080053
:101760000A214FF47A70864208F101080BDB96FBE0
:10177000F0F3303302F8083096FBF0F308F101087B
:1017800000FB136601E0642E0CDB642096FBF0F393
:10179000303302F8083096FBF0F308F1010800FB43
:1017A000136601E00A2E06DB96FBF1F0303002F8FA
:1017B000080008F1010896FBF1F001FB10603030E1
:1017C00002F80800A16908F1010808EB050202EB24
:1017D0000A00081AA0612078C00602D42046FFF74C
:1017E000ECF8216A08AE01EB0A00206204E0D4E9BB
:1017F000012116F8010B9047BAF1010AF7D22078BF
:10180000C00602D52046FFF7D8F86E4609E016F864
:10181000010B3E280FD0D4E901219047206A401CDB
:101820002062B8F10108F2D22046FFF7DCF809B0D7
:101830000320BDE8F08F206A2844206203E0D4E949
:101840000121302090476D1EEBD3F8E716D101003F
:1018500002FCFFFF10B5436913B1AFF3008001E054
:10186000FFF7E4F8012010BD127800F124010A709E
:1018700000224A700122EDE711684FF0FF32E9E7DC
:1018800010B5436913B1AFF3008001E0FFF76EF9C3
:10189000012010BD128800F1240182840022C2843C
:1018A0000122EDE711684FF0FF32E9E72DE9F04141
:1018B00016460C460546FEF7EFFF036893F8010154
:1018C000012807D0FF2C12D8185D80B101202C70A0
:1018D000BDE8F081D3F807013246214603F2071331
:1018E000C7182846BC46BDE8F041002360474FF0CA
:1018F000FF30EDE7002801D0FEF7C6BF704710B5F6
:1019000000F0FEF8BDE81040FFF7F4BF7546FFF7A2
:101910004DFBAE4605006946534620F0070085465C
:1019200018B020B5FEF7BAFCBDE820404FF0000625
:101930004FF000074FF000084FF0000BAC46ACE84A
:10194000C009ACE8C009ACE8C009ACE8C00921F0A6
:1019500007018D46704700002DE9F0411F460446FF
:1019600003260168072A01F4006004DB08B116A50C
:1019700005E016A503E008B115A500E015A521F0C6
:1019800010002060A069C01EA0610FB1401EA061C0
:101990002046FFF712F84FB1D4E9012138469047AD
:1019A000206A401C2062C01C206206E0206AFAE720
:1019B000D4E9012115F8010B9047761EF8D2204694
:1019C000FFF711F8BDE8F0814E414E006E616E00E8
:1019D000494E4600696E66002DE9F047814616467D
:1019E0008AB0354878440DC88DE80D0032487844F7
:1019F000801C03AC0DC884E80D0041F69B30084400
:101A0000372190FBF1F290FBF1F5A5F1800501FB88
:101A100012041B3C02D56442012000E00020DFF8E4
:101A200098A080460027FA44AAF1BE0A0EE0E0071B
:101A30000AD03246684607EB470101230AEB8101D1
:101A40001AF08DFD8DE8070064107F1C002CEED18C
:101A5000194F7F44AE3F19E0E80715D007EB04109B
:101A60000DF1180A90E80E008AE80E00C068F042F6
:101A700001D1981908903246012306A903A81AF04B
:101A80006EFD03AB83E807006D10641C002DE3D1ED
:101A90004FF0010332466946B8F1000F03A802D0A7
:101AA0001AF048FD01E01AF05AFDC9E90001C9F831
:101AB00008200AB0BDE8F08720CE010010B504462A
:101AC000AFF300802046BDE81040FEF7D2BB70B5F2
:101AD00005460C460A2000E06D1C00F039F835B1CF
:101AE00028780028F8D102E0641C00F031F814B125
:101AF00020780028F8D1BDE870400A2000F028B80E
:101B000010B5012805D0002103A0FFF7E0FF012058
:101B100010BD09A1F8E7000053494752544D454D07
:101B20003A204F7574206F662068656170206D657E
:101B30006D6F7279000000003A2048656170206D79
:101B4000656D6F727920636F727275707465640071
:101B500008B569468DF800000320ABBE08BD000043
:101B600080B582B001900198062100F003F802B020
:101B700080BD000080B584B003900291039842F6C6
:101B800044110844029906F023FD01900198D8B948
:101B9000FFE703984FF425514058029902F0E8FC02
:101BA0000190019828B9FFE7029804F0FDFD01902B
:101BB000FFE7019838B1FFE7039942F64C128858C5
:101BC00001308850FFE7FFE7019838B1FFE703993C
:101BD00042F65012885801308850FFE7019804B04F
:101BE00080BD000080B584B00390029140F2841063
:101BF000C2F200000068019003980068FFF7B0FF90
:101C00000090009808B1FFE706E040F2A800C2F299
:101C100000000068019000E0FFE70098029908606A
:101C2000019804B080BD000082B0019040F28410A1
:101C3000C2F20000006800900198006B08B1FFE755
:101C4000FFE7009802B0704780B584B003908DF82C
:101C50000B109DF80B0003F09DF9ADF80800BDF8DE
:101C600008000138ADF8060003990888BDF8062081
:101C700010449043088004B080BD000080B584B05B
:101C8000039002910298083007F03CFC0399086029
:101C90000398006838B1FFE740F28410C2F20000F8
:101CA0000068019006E040F2A400C2F20000006863
:101CB0000190FFE7019804B080BD000080B58AB0B4
:101CC000099008918DF81F200998808F7830ADF821
:101CD0001C0009980390089904919DF81F10059124
:101CE000818F0691B0F84200BDF81C10884205DAD9
:101CF000FFE70998B0F84200029003E0BDF81C002D
:101D00000290FFE704990398069B059ADDF808C046
:101D10001FFA8CFCEE46CEF800C0D2B29BB200F0A7
:101D20002BF80AB080BD000083B002900191ADF89D
:101D30000220BDF8020001300299019A01EB420134
:101D400042F63A12885203B07047000080B584B062
:101D5000039002918DF80720039802999DF80720BF
:101D6000B0F84230EE464FF47A6CCEF800C000F086
:101D700003F804B080BD000080B588B084460A989E
:101D8000CDF81CC006918DF81720ADF81430ADF8D1
:101D9000120040F28800C2F20000006803909DF833
:101DA000170003F0F7F8ADF80A00BDF80A00013893
:101DB000ADF808009DF8171005A8FFF745FFBDF81E
:101DC0001400ADF80600FFE7BDF80600BDF80810E6
:101DD0000844BDF8121088422FDAFFE70798BDF8D3
:101DE0000610084441F69811405CF0B9FFE70798E7
:101DF000BDF80610BDF808201144084441F69811BA
:101E0000405C90B9FFE70798BDF80610BDF80A20BE
:101E100004F088FBBDF806000699088040F28410A3
:101E2000C2F200000068039007E0BDF80A10BDF898
:101E300006000844ADF80600C6E7039808B080BD68
:101E400080B584B0029001910298808801998988B8
:101E5000884217D1FFE70298C0880199C988884253
:101E600010D1FFE7029B03F10800019908319A881D
:101E7000DB881A44FEF78EFBB0FA80F040098DF83B
:101E80000F0003E000208DF80F00FFE79DF80F0022
:101E900004B080BD80B582B001900198062102F0A7
:101EA00023FB02B080BD0000FFE7FEE770B58EB0F7
:101EB00094468E46044615991498139B129A0C94D6
:101EC000CDF82CE0CDF828C0099308920791069030
:101ED00007F020FD0590059818B1FFE705980D90D3
:101EE00015E00C9850F8043B0B990A9ADDF820C0D5
:101EF000099C069D079EEE46CEF80C60CEF8085071
:101F0000CEF80440CEF800C098470D90FFE70D983A
:101F10000EB070BD70B58EB094468E4604461599CD
:101F20001498139B129A0C94CDF82CE0CDF828C08D
:101F3000099308920791069007F0ECFC059005982C
:101F400018B1FFE705980D9015E00C9850F8043B88
:101F50000B990A9ADDF820C0099C069D079EEE4663
:101F6000CEF80C60CEF80850CEF80440CEF800C091
:101F700098470D90FFE70D980EB070BD10B592B068
:101F800011901091ADF83E2040F28410C2F2000092
:101F900000680E90119841698269C369D0F820C029
:101FA000D0F824E0846A0C94CDF82CE0CDF828C059
:101FB000099308920791C06A0D9011981430069009
:101FC000069907A808601198406B02F011FF069966
:101FD0004860069900208860109806994861069923
:101FE000C8680130C860BDF83E00069908831198A2
:101FF000408FADF81600109802F084FDADF8140083
:10200000BDF83E00052829D0FFE70020ADF81200FA
:10201000FFE7BDF81200BDF8141088421DDAFFE793
:102020001098BDF81420BDF81210C943114489B2AC
:1020300002F088FD8DF8110011989DF8111005F03F
:102040008BFB0E900E9808B1FFE7D4E0FFE7BDF8D8
:1020500012000130ADF81200DBE706E0BDF81420F5
:102060001199488F801A4887FFE71198408FADF883
:102070000E00BDF80E0006990882BDF816001199F1
:102080004887119805F07EFD1198408FADF8160035
:10209000109802F047FDADF80C00FFE7BDF80C000A
:1020A000411EADF80C1020B1FFE7119805F0FEFAC3
:1020B000F4E7BDF816001199488706994882002078
:1020C000ADF80A00FFE7BDF80A00BDF81410884219
:1020D00030DAFFE71098BDF80A1002F033FD8DF8F2
:1020E00009001198BDF80E10BDF80A20114489B2FC
:1020F00002F09EFEADF8060011989DF80910BDF89B
:10210000062005F0DBFCBDF806001199B1F842107D
:10211000884208DBFFE71198BDF806109DF80920FA
:1021200004F01AFAFFE7FFE7BDF80A000130ADF846
:102130000A00C8E7119800F061F80E900E9808B1F7
:10214000FFE758E0119806F0F1FD0E900E9808B1E7
:10215000FFE750E01198006BB0B3FFE7119804F06F
:1021600039F960B9FFE7119800F11401002206F077
:1021700057FB0E900E9808B1FFE73CE0FFE711987F
:1021800006F0AAFD0E900E9808B1FFE733E0BDF807
:102190003E00042804D1FFE7BDF80C0098B9FFE722
:1021A000119842F63E11405A05280CD0FFE71199CC
:1021B000888C4887119805F0E5FC0E900E9808B1C0
:1021C000FFE718E0FFE7FFE7119805F051FA1199D2
:1021D0000798089A099BDDF828C0DDF82CE00C9CD4
:1021E0008C62C1F824E0C1F820C0CB618A614861EB
:1021F0000D98C862FFE70E9812B010BD80B58AB086
:10220000099040F28410C2F200000068089000209B
:102210008DF81F00FFE709998868C968884280F037
:102220009880FFE7099988680861099800F108011A
:10223000C26807A806F0BCF80890089808B1FFE744
:1022400094E00998006BC8B9FFE7BDF81C0001468F
:1022500005910B2809D0FFE70598232805D0FFE753
:1022600005984138032801D8FFE706E040F2C00096
:10227000C2F200000068089078E0FFE7BDF81C009B
:1022800002F06EFD0690069810BBFFE740F2FC00DE
:10229000C2F200000068099A11685268BDF81C304B
:1022A000EC46CCF80C3040F22A23C0F60203CCF8FE
:1022B000083040F6BD13CCF8043040F2C913C0F624
:1022C0000203CCF80030002306F010FE08904DE029
:1022D0000698406960B1FFE7069842690998BDF821
:1022E0001C1090470890089808B1FFE73EE00AE00C
:1022F0000998BDF81C1001F0FDFA0890089808B183
:10230000FFE733E0FFE7BDF81C00099942F63E12F3
:102310008852BDF81C00052810D1FFE70998808D70
:10232000042807D0FFE740F20010C2F20000006866
:1023300008901BE001208DF81F000AE0BDF81C008A
:102340000B2804D1FFE701208DF81F0001E0FFE713
:1023500061E79DF81F00C00738B9FFE740F20010A1
:10236000C2F200000068089000E0FFE708980AB099
:1023700080BD000080B58AB00990089107928DF861
:102380001B3040F28410C2F20000006805900998EA
:1023900002F0B6FCADF81200BDF81200002803DC14
:1023A000FFE70120019003E0BDF812000190FFE774
:1023B0000198ADF812000DF112000221FFF744FC64
:1023C000BDF81200089908809DF81B00C00748B1AD
:1023D000FFE7099805F06AF90590059808B1FFE74D
:1023E00063E0FFE7079802F08DFBADF81000079857
:1023F00002F098FBADF80E00BDF81200BDF8101009
:10240000BDF80E20114400EB4100ADF80C00FFE7D1
:10241000BDF81000411EADF81010B8B1FFE70998E3
:10242000BDF80C100239ADF80C1089B201F03CFF78
:102430000590059808B1FFE737E0099805F036F9EF
:102440000590059808B1FFE72FE0E1E70020ADF81F
:102450000A00FFE7BDF80E00411EADF80E1018B3DC
:10246000FFE70798BDF80A104A1CADF80A2002F0F1
:1024700089FB8DF8090009989DF80910BDF8122014
:1024800005F01CFB0590059808B1FFE70DE00998E1
:10249000BDF812109DF8092004F05EF8BDF8120096
:1024A0000230ADF81200D5E7FFE705980AB080BD0D
:1024B00080B588B0079006910592079803A9FFF7A9
:1024C00091FB0490049808B1FFE730E0039802F014
:1024D0008FFC069908600798406B02900398079953
:1024E0004863079805990522FFF748FD0490049872
:1024F00008B1FFE71BE0079849F60D51C0F600014F
:1025000001F03AFF0490049808B1FFE70FE0079844
:102510000190029802F06CFC0146019801F07AFFEC
:10252000079806F04BF8029807994863FFE704986C
:1025300008B080BD80B58CB00A9040F28410C2F221
:102540000000006809900A98C06830B9FFE740F2BF
:102550004420C0F602000B9029E10A98406A0890D6
:102560000A980068006807900798069006984FF44C
:102570002551FEF71EF90798069908600A98006829
:10258000069948600A98069908630A98C0680699EF
:1025900088600A9800690699C86008980699886258
:1025A000069800F10801C26805A805F099FD099098
:1025B000099808B1FFE7F4E0069800F13401FFF74D
:1025C00011FB0990099808B1FFE7EAE00698406B13
:1025D00002F00EFC04900698006B02F079FB4000BC
:1025E000ADF80E000020ADF80C00FFE7BDF80C00C0
:1025F000BDF80E1088420CDAFFE70698BDF80C1003
:1026000003F062FFFFE7BDF80C000130ADF80C00ED
:10261000ECE7BDF80E000699A1F842000699096B97
:10262000C8850698006B02F025FBADF80A00002073
:10263000ADF80800FFE7BDF80800BDF80A108842B1
:102640001FDAFFE70698006BBDF8081002F0B8FA31
:102650008DF8070006989DF8071005F077FA0990A5
:10266000099808B1FFE79CE00699B1F842000230F2
:10267000A1F84200FFE7BDF808000130ADF80800FE
:10268000D9E70699B1F84200A1F840000699096B14
:102690000886069942F638128852069800F08AF8A1
:1026A0000990099808B1FFE77BE0069802F028FB43
:1026B000ADF80400BDF804000699B1F84020801A76
:1026C0008000096B8886BDF804000699C8870699C2
:1026D0008887069805F0AAFF0990099808B1FFE7D6
:1026E0005FE00699B1F8420042F638128852069926
:1026F000A1F844000699488F08870699C88406986F
:102700004AF2FD51C0F6000101F036FE0990099829
:1027100008B1FFE745E006980A9901F07BFE0698AC
:10272000FFF76CFD0990099808B1FFE739E00698BA
:1027300042F63E11405A0B2807D0FFE740F2001046
:10274000C2F20000006809902BE004980A998862A0
:102750000698B0F844000A9988850699C88F898F31
:10276000401AADF80200BDF8020080000A990887FF
:10277000BDF80200A0B1FFE7069848300A99098F1A
:1027800006F0B6FC0A99C8630A98C06B38B9FFE72F
:1027900040F2A400C2F200000068099001E0FFE7E7
:1027A000FFE7069805F00AFF09980B90FFE70B98E2
:1027B0000CB080BD80B588B00790002005900798C8
:1027C00000F10801C26804A805F08AFC069006988A
:1027D00008B1FFE74FE000200390FFE7039804995A
:1027E00088423ED2FFE7079800F10801C26802A8BC
:1027F00005F076FC0690069808B1FFE73BE00798E5
:1028000000F10801C2680DF1070005F055FC0690C3
:10281000069808B1FFE72EE09DF907100DF10600BC
:1028200003F0EAFF0690069808B1FFE723E002995B
:10283000059808440590FFE70298411E029158B19F
:10284000FFE707989DF8061005F080F906900698B6
:1028500008B1FFE70FE0EFE7FFE7039801300390CF
:10286000BCE70798006B28B1FFE705980799096B4B
:102870004886FFE7FFE7069808B080BD80B58CB0BA
:102880000B90ADF82A100B9800F10801C26808A857
:1028900005F026FC0990099808B1FFE75AE10B986A
:1028A000089A07A902F0DCF80990099808B1FFE737
:1028B00050E10798008B032840F08F80FFE7BDF8B8
:1028C0002A000D2872D1FFE70798406902F01AF933
:1028D000002846D0FFE70B9803F086FD024649F634
:1028E000B551C0F6000149F64D60C0F60000002A5F
:1028F00018BF084606900B98069901F03DFD099017
:10290000099808B1FFE725E10B9801F099FD0990BE
:10291000099808B1FFE71DE10B9805F0EDFE059061
:102920000B980799012205F07BFF0990099808B1DF
:10293000FFE70FE10B984AF26541C0F6000101F094
:102940001BFD0990099808B1FFE703E10B9807996F
:10295000496801F05FFD0B9802F040FA05990860A4
:1029600023E00B98002101F045FC0990099808B17B
:10297000FFE7EFE00B98012104F0EEFE09900998C3
:1029800008B1FFE7E6E00B984AF29941C0F6000172
:1029900001F0F2FC0990099808B1FFE7DAE00B9822
:1029A0000799496801F036FDFFE715E00B984AF2F8
:1029B0006541C0F6000101F0DFFC0990099808B1FB
:1029C000FFE7C7E00B980799496801F023FD0B99D1
:1029D000012081F82E00FFE7BBE00020049007985B
:1029E000C068B0FA80F040098DF80F000798406980
:1029F00002F098F8002818BF01208DF80E00BDF8ED
:102A00002A000D2857D1FFE79DF80E00C00728B90E
:102A1000FFE79DF80F00C00730B3FFE70B9803F006
:102A2000E3FC024649F6B551C0F6000149F64D6097
:102A3000C0F60000002A18BF084602900B980299C1
:102A400001F09AFC0990099808B1FFE782E00B9821
:102A500001F0F6FC0990099808B1FFE77AE00B98BD
:102A600005F04AFE049025E00B9803F0BDFC0246F9
:102A700049F6F161C0F6000149F68970C0F6000020
:102A8000002A18BF084601900B98019901F074FCC8
:102A90000990099808B1FFE75CE00B9801F0D0FCC1
:102AA0000990099808B1FFE754E00B98079901F0E5
:102AB000A1FC4FE0FFE70B9803F08CFC88BBFFE71D
:102AC0009DF80F00C007B8B1FFE70B9807990122E6
:102AD00005F058FF0990099808B1FFE73AE00B9814
:102AE0004AF67571C0F6000101F046FC099009989C
:102AF00008B1FFE72EE013E00B980799012205F0DB
:102B00008FFE0990099808B1FFE723E00B98079919
:102B100001F052FC0990099808B1FFE71AE0FFE7BD
:102B2000FFE7049830B1FFE70B9802F057F90499DA
:102B30000860FFE7BDF82A000C2809D1FFE70B98D1
:102B400006F022F80990099808B1FFE702E0FFE7D4
:102B5000FFE7FFE709980CB080BD000080B58CB09E
:102B60000B90ADF82A100B9800F10801C26808A874
:102B700005F0B6FA0990099808B1FFE7DBE00B9879
:102B8000022104F0CDFE0990099808B1FFE7D2E0D8
:102B90000B9802F089F9ADF81E000B9804F086FD41
:102BA0000990099808B1FFE7C5E00898043006903D
:102BB0000B98069901F098FC0990099808B1FFE775
:102BC000B9E00B984AF22D01C0F6000101F0D4FBE8
:102BD0000990099808B1FFE7ADE00B98BDF81E1009
:102BE00001F044FC0B98089901F0B6FB0020059019
:102BF0000899013108910490FFE7049808998842E8
:102C000080F09080FFE70B9800F10801C26803A8EC
:102C100005F066FA0990099808B1FFE78BE00B9878
:102C2000039A02A901F01CFF0990099808B1FFE777
:102C300081E00B9805A9FEF7D5FF0990099808B126
:102C4000FFE778E0059802F0D3F801900B98406B0D
:102C5000009005980B9948630298008B03281CD1BB
:102C6000FFE70B980299012205F0DAFD0990099817
:102C700008B1FFE75FE00B984AF26541C0F600013A
:102C800001F07AFB0990099808B1FFE753E00B982F
:102C90000299496801F0BEFB35E00B9803F09AFBFE
:102CA00080BBFFE70298C068B8B9FFE70B980299AC
:102CB000012205F067FE0990099808B1FFE73AE0A4
:102CC0000B984AF67571C0F6000101F055FB0990AA
:102CD000099808B1FFE72EE013E00B980299012252
:102CE00005F09EFD0990099808B1FFE723E00B98D5
:102CF000029901F061FB0990099808B1FFE71AE019
:102D0000FFE7FFE7FFE70B9805F058FC00980B99E9
:102D100048630B98019901F07DFBFFE704980130AF
:102D200004906AE70B9805F02FFF0990099808B105
:102D3000FFE700E0FFE709980CB080BD80B592B0D6
:102D40001190ADF84210119800F10801C2680EA868
:102D500005F0C6F90F900F9808B1FFE77CE01198D5
:102D600040680E9903F0D2FC0D900D9800286BD0AE
:102D7000FFE70D980068A8B3FFE711980D994A6A1C
:102D80000DF132010023FFF7F5FA0F900F9808B10B
:102D9000FFE761E00D98806A48B1FFE74AF2B100B1
:102DA000C0F600000B900D98806A0A9007E04AF286
:102DB000CD20C0F600000B900D980A90FFE7119807
:102DC0000B9901F0D9FA0F900F9808B1FFE743E093
:102DD00011980A9901F01EFB1198BDF8321001F00C
:102DE00045FB30E040F28000C2F20000006809902C
:102DF000119801680791406808900D9801F004FF50
:102E000006900D9806F07EFA069B0799089A86466A
:102E10000998EC46CCF810E0CCF80C3040F2C11325
:102E2000C0F60203CCF8083040F24763CCF8043017
:102E300040F2C913C0F60203CCF80030002306F0BC
:102E400055F80F9008E006E040F28400C2F200005E
:102E500000680F9000E0FFE70F9812B080BD0000FF
:102E600080B588B00790ADF81A10079800F10801F6
:102E7000C26804A805F034F90590059808B1FFE789
:102E80005FE0079800F10801C2680DF10F0005F03E
:102E900013F90590059808B1FFE752E004980799E7
:102EA00049684969884206D3FFE740F20420C0F62A
:102EB0000200059045E0079803F096FA50B1FFE74D
:102EC0000798012104F02CFD0590059808B1FFE753
:102ED00037E0FFE7079801F0E7FFADF80C0007982F
:102EE00040688069049950F8210001900798019A80
:102EF0000DF10A010123FFF73DFA0590059808B18D
:102F0000FFE71EE007984AF26911C0F6000101F0E0
:102F100033FA0590059808B1FFE712E00798BDF86D
:102F20000C1001F0A3FA0798416801F073FA0798B2
:102F3000019901F06FFA0798BDF80A1001F096FAAE
:102F4000FFE7059808B080BD80B586B00590ADF864
:102F5000121000200290059800F10801C26802A832
:102F600005F0D4F90390039808B1FFE70DE0059848
:102F7000029A6B4603211960002304F063FE03905C
:102F8000039808B1FFE700E0FFE7039806B080BDB3
:102F900080B588B00790ADF81A1000200390029019
:102FA000079800F10801C26802A805F0D7F905905A
:102FB000059808B1FFE70EE00798029A039BEC46DC
:102FC0000421CCF8001004F03DFE0590059808B1EE
:102FD000FFE700E0FFE7059808B080BD80B586B048
:102FE0000590ADF81210059800F10801C26802A81A
:102FF00005F03CF80390039808B1FFE70EE0059850
:10300000029AD317EC460121CCF8001004F01AFE06
:103010000390039808B1FFE700E0FFE7039806B0CC
:1030200080BD000080B588B00790ADF81A100798F1
:1030300000F10801C26802A805F02AF80590059879
:1030400008B1FFE70EE00798029A039BEC460221C5
:10305000CCF8001004F0F6FD0590059808B1FFE7E4
:1030600000E0FFE7059808B080BD000080B586B09D
:103070000590ADF8121040F28410C2F20000006812
:103080000390BDF8120001F06BFE0290029838B96F
:10309000FFE740F2FC00C2F200000068039047E046
:1030A00005980299497803F04FF98DF807000598C3
:1030B00003F0A8F98DF8060002989DF8071001F0BA
:1030C00001029DF8061001F0010141EA420100EB06
:1030D0008100406800900598009901F04DF9039037
:1030E000039808B1FFE723E0059801F0A9F90390E0
:1030F000039808B1FFE71BE09DF80700C00758B12F
:10310000FFE705980299497804F02EFD0390039893
:1031100008B1FFE70CE00AE005980299497804F04D
:1031200015FF0390039808B1FFE701E0FFE7FFE711
:10313000039806B080BD000080B584B00390ADF860
:103140000A10039804F0B2FA0190019804B080BD0F
:1031500080B584B00390ADF80A1040F28410C2F23A
:103160000000006801900398006A00BBFFE7039825
:1031700005F0DCFD0398006B60B1FFE7039800F1F8
:103180001401002205F0FEFB0190019808B1FFE751
:103190000EE0FFE703984AF67571C0F6000101F0F2
:1031A000EBF80190019808B1FFE701E0FFE7FFE7C6
:1031B000019804B080BD000080B586B00590ADF8E0
:1031C000121040F28410C2F20000006803900598CB
:1031D00000F10801C2680DF10B0005F03BF9039006
:1031E000039808B1FFE734E0BDF812109DF80B001A
:1031F00040EA0120ADF81200BDF8120001F0B0FD68
:103200000190019838B9FFE740F2FC00C2F20000DB
:10321000006803901DE0019840690090009838B95B
:10322000FFE740F2BC00C2F200000068039010E02B
:10323000009A0598BDF8121090470390039808B1C2
:10324000FFE706E0BDF81200059942F63E128852EB
:10325000FFE7039806B080BD80B584B0039002916B
:103260000298007F02F0C0FF02464AF24D71C0F69C
:1032700000014AF2E160C0F60000002A18BF0846CB
:1032800000900398009901F077F80190019808B137
:10329000FFE70FE003980299083101F0BBF80398AB
:1032A0000299097F04F060FC0190019808B1FFE7E2
:1032B00000E0FFE7019804B080BD000080B586B053
:1032C0000590ADF81210059800F10801C26802A837
:1032D00004F006FF0390039808B1FFE72BE0029883
:1032E00000900598006B01F0DDFC014600988842D3
:1032F00006D3FFE740F28920C0F6020003901AE0EF
:103300000598BDF8081001F0F9FD8DF80700059843
:10331000BDF8081001F08CFDADF8040005989DF88B
:103320000710BDF8042004F0C9FB0390039808B10E
:10333000FFE700E0FFE7039806B080BD80B58AB0E4
:103340000990ADF8221040F28410C2F2000000682B
:103350000790099800F10801C26806A804F0C0FEB1
:103360000790079808B1FFE754E006980999496863
:10337000496B884246D2FFE709984068806BF8B1F4
:10338000FFE709984068806B069900EB41100590B3
:10339000BDF82200232806D1FFE709980599FFF719
:1033A0005BFF049005E00998059900F0CDFC0490BE
:1033B000FFE704980790079808B1FFE72AE020E0AC
:1033C00040F29400C2F200000068099A1168526845
:1033D0001369EC46CCF80C3040F2C023C0F602036F
:1033E000CCF808304FF4A363CCF8043040F2C91392
:1033F000C0F60203CCF80030002305F077FD0790FB
:1034000008E006E040F29000C2F200000068079079
:1034100000E0FFE707980AB080BD000080B588B0E3
:103420000790ADF81A10079804F02EFA0590059849
:1034300008B1FFE77AE0079804F0C0F90590059815
:1034400008B1FFE772E0079802F0CEFF02464AF2A9
:10345000C971C0F600014AF66100C0F60000002AFA
:1034600018BF084604900798049900F085FF05905E
:10347000059808B1FFE759E0079800F0E1FF0590D3
:10348000059808B1FFE751E0079805F035F903907A
:10349000079802A904F0A0FD0590059808B1FFE780
:1034A00044E00798408FADF8060007980299BDF8F0
:1034B0001A20FEF763FD0590059808B1FFE735E097
:1034C000079842F63E11405A05280FD1FFE7BDF894
:1034D00006000799488707980399029AFEF7E8FFC4
:1034E0000590059808B1FFE720E01EE0029801F082
:1034F00019FB98B1FFE70799886801388860BDF823
:1035000006000799488707980399029AFEF7D0FFAB
:103510000590059808B1FFE708E005E0079801F07D
:103520005DFC03990860FFE7FFE7FFE7059808B037
:1035300080BD000080B586B00590ADF812100598EA
:1035400000F10801C26802A804F0CAFD03900398C4
:1035500008B1FFE739E0059800F10801C26801A849
:1035600004F0BEFD0390039808B1FFE72DE0BDF81D
:10357000120001F0F5FB0090009838B9FFE740F227
:10358000FC00C2F20000006803901EE00098407842
:1035900002F080FE50B1FFE70598042104F0C0F965
:1035A0000390039808B1FFE70FE0FFE70598BDF827
:1035B000121000F09FF90390039808B1FFE704E0B0
:1035C0000598019900F0C8FEFFE7039806B080BD9A
:1035D00080B588B00790ADF81A10079804F0FCF990
:1035E0000590059808B1FFE79AE0079804F0E6F81F
:1035F0000590059808B1FFE792E0079804A904F048
:10360000EBFC0590059808B1FFE789E0BDF81A00CA
:10361000032878D1FFE7049801F074FAADF80E00A2
:10362000BDF80E00002861D0FFE7079801F08EFB7F
:10363000ADF80C00BDF80C00BDF80E10884254DB4C
:10364000FFE7079801F028FC0130ADF80A00BDF84B
:103650000A00BDF80E10401AADF80800FFE7BDF8EB
:103660000800BDF80A1088423EDAFFE70798BDF867
:10367000081001F0DDFBADF806000798BDF8081052
:1036800001F03CFC8DF805000798BDF8061002F02B
:10369000D7FD10B3FFE707989DF805200DF1020153
:1036A000FEF754FB0590059808B1FFE738E007984E
:1036B000BDF80210BDF8082000F038FC0590059810
:1036C00008B1FFE72CE0BDF802000799BDF808201B
:1036D00001EB4201A1F82802FFE7FFE7BDF808006F
:1036E0000130ADF80800BAE7FFE7FFE707984AF6B0
:1036F0000511C0F6000100F03FFE0590059808B1E5
:10370000FFE70DE000E0FFE707980499BDF81A20F5
:10371000FEF734FC0590059808B1FFE700E0FFE7ED
:10372000059808B080BD000080B586B00590ADF862
:10373000121040F28410C2F2000000680390059855
:1037400000F10801C2680DF10B0004F0B5FC039014
:10375000039808B1FFE74BE0BDF812004FF60A41AD
:10376000884213D1FFE7059800F10801C2680DF106
:103770000B0004F0A1FC0390039808B1FFE737E0C9
:103780004AF68510C0F60000019005E04AF6752063
:10379000C0F600000190FFE70598002100F02AFD27
:1037A0000390039808B1FFE722E00598019900F023
:1037B000E3FD0390039808B1FFE719E005980121A4
:1037C00003F0CAFF0390039808B1FFE710E00598E3
:1037D00000F036FE0390039808B1FFE708E0059873
:1037E00000F02EFE0390039808B1FFE700E0FFE72A
:1037F000039806B080BD000080B584B00390ADF89A
:103800000A10039800F10801C2680DF1030004F0EA
:1038100053FC0190019808B1FFE727E003980021CD
:1038200000F0E8FC0190019808B1FFE71EE0039862
:10383000012103F091FF0190019808B1FFE715E025
:1038400003984AF63131C0F6000100F095FD019071
:10385000019808B1FFE709E00398012104F076FB25
:103860000190019808B1FFE700E0FFE7019804B07C
:1038700080BD000080B584B00390ADF80A100398B5
:1038800000F10801C2680DF1030004F015FC01907D
:10389000019808B1FFE71EE00398012104F040F809
:1038A0000190019808B1FFE715E003984AF6D1317D
:1038B000C0F6000100F060FD0190019808B1FFE73B
:1038C00009E00398012104F041FB0190019808B13F
:1038D000FFE700E0FFE7019804B080BD82B00190EF
:1038E000ADF8021040F28410C2F20000006802B08D
:1038F0007047000080B58AB00990ADF82210BDF87D
:10390000220001F02DFA0690069838B9FFE740F240
:10391000FC00C2F2000000680790B8E0099801F0CE
:10392000E3FA02F0B7FC88B1FFE70698407802F0AE
:10393000C9FC58B1FFE709980699497803F0F0FFF0
:103940000790079808B1FFE7A1E0FFE7069890F914
:103950000000C0B9FFE7099802F046FD20B1FFE77B
:103960000698406805900DE009980699497803F09B
:10397000D7FF0790079808B1FFE788E006988068AE
:103980000590FFE731E0099802F02EFD68B1FFE7EE
:10399000069840680590099802F03EFD20B1FFE7C7
:1039A000069800690590FFE71EE0099802F034FDD3
:1039B00058B1FFE7069880680590059820B9FFE7A1
:1039C000069840680590FFE70DE009980699497848
:1039D00003F0A6FF0790079808B1FFE757E00698A5
:1039E000C0680590FFE7FFE7FFE7059888B3FFE7AA
:1039F0000998059900F0C0FC0790079808B1FFE707
:103A000045E0099800F01CFD0790079808B1FFE712
:103A10003DE0069890F90000B0F1FF3F09DCFFE7B8
:103A2000099800F00DFD0790079808B1FFE72EE018
:103A3000FFE70698407858B1FFE70998069949785A
:103A400004F084FA0790079808B1FFE71FE0FFE74A
:103A50001CE0099801684268BDF822006B46D860F6
:103A600040F2BD20C0F60200986040F62500586084
:103A700040F2C910C0F60200186040F2E610C0F62D
:103A80000200002305F032FA079000E0FFE70798F4
:103A90000AB080BD80B584B00390ADF80A1040F242
:103AA0008410C2F2000000680190039802F092FCBA
:103AB00048BBFFE70398026A694600F0D1FF019016
:103AC000019808B1FFE71FE003980099012204F074
:103AD00059FF0190019808B1FFE715E003984AF6F5
:103AE0007571C0F6000100F047FC0190019808B123
:103AF000FFE709E0039805F047F80190019808B145
:103B0000FFE701E0FFE7FFE7019804B080BD000098
:103B100080B58EB00D90ADF8321040F28410C2F234
:103B2000000000680B904EF62000C0F6010081886E
:103B3000ADF82810006809900D98012101F0FAF9FC
:103B40008DF82300002007909DF8230002F0A2FBCF
:103B5000002866D0FFE70D9802F05EFC80B9FFE711
:103B60000D9802F067FC58B9FFE70D989DF82310F7
:103B700003F0D6FE0B900B9808B1FFE7E0E0FFE7FB
:103B80000D9802F031FC8DF81B000D9801F08CF9B6
:103B9000ADF824000D9803F089FD0B900B9808B147
:103BA000FFE7CDE00020059001200490FFE7049896
:103BB00002281DD8FFE70D9802F016FC18B1FFE7A8
:103BC0000498059007E00D9801F06EF9049A09A990
:103BD00021F81200FFE70D9803F068FD0B900B9899
:103BE00008B1FFE7ACE0FFE7049801300490DEE79E
:103BF0009DF8230000EB40014EF63800C0F60100AE
:103C000000EBC1009DF81B1001F0010101EB410127
:103C100000EB8100059900EB810050F8480C0790FB
:103C200063E09DF8230002F04DFB00284FD0FFE732
:103C30000D9802F0D9FBA8B9FFE70D9802F0ECFB54
:103C400080B9FFE70D9802F0F5FB58B9FFE70D9832
:103C50009DF8231003F064FE0B900B9808B1FFE76A
:103C60006EE0FFE70320039000200290FFE7029838
:103C700002281DD8FFE70D9802F0B6FB18B1FFE748
:103C80000298039007E00D9801F00EF9029A09A935
:103C900021F81200FFE70D9803F008FD0B900B9838
:103CA00008B1FFE74CE0FFE7029801300290DEE741
:103CB0009DF823104EF66800C0F6010000EB0110DD
:103CC000039900EB810050F8100C07900CE00D9860
:103CD00002F080FB38B9FFE740F28C00C2F200002E
:103CE00000680B902CE0FFE7FFE70D98079900F0C4
:103CF00043FB00200190FFE70198022815D8FFE759
:103D0000019909A830F8110002F0A2FB40B1FFE7C9
:103D10000D98019A09A931F8121000F0A7FBFFE7EE
:103D2000FFE7019801300190E6E70D989DF8231018
:103D300004F00CF90B900B9808B1FFE700E0FFE7E7
:103D40000B980EB080BD000080B586B00590049140
:103D500040F28410C2F20000006803900498807F53
:103D6000C00700284BD0FFE7059801F0BDF88DF89B
:103D70000700059802F038FB50B1FFE79DF80710E7
:103D800040F27410C0F6020050F82100029011E0D9
:103D90009DF8070002F028FA02464BF6DD51C0F606
:103DA00000014BF67150C0F60000002A18BF08460B
:103DB0000290FFE70598029900F0DEFA039003985D
:103DC00008B1FFE723E005980499083100F022FBD1
:103DD000059802F017FB48B1FFE70598009001F045
:103DE00063F80146009800F041FBFFE7059803F0F7
:103DF0005DFC0390039808B1FFE708E006E040F29D
:103E0000C400C2F200000068039000E0FFE70398DE
:103E100006B080BD80B586B00590ADF8121005984B
:103E200000F10801C26802A804F05AF9039003984F
:103E300008B1FFE751E0029800900598006B00F090
:103E400031FF01460098884240D2FFE70598BDF84F
:103E5000081000F0EDFFADF806000598BDF806204B
:103E600001A900F0EBFC0390039808B1FFE734E0F0
:103E7000BDF80400BDF8061088420BD1FFE7059895
:103E8000BDF8061000F010FA0390039808B1FFE7A0
:103E900023E00CE00598BDF80610BDF8042003F0FF
:103EA000B5FD0390039808B1FFE716E0FFE7BDF802
:103EB0001200222809D0FFE7059803F0F7FB0390D2
:103EC000039808B1FFE708E0FFE705E040F289202A
:103ED000C0F60200039000E0FFE7039806B080BD43
:103EE00080B584B00390ADF80A100398FDF79CFEEE
:103EF0000190019808B1FFE714E003984CF2951186
:103F0000C0F6000100F038FA0190019808B1FFE70F
:103F100008E0039804F038FE0190019808B1FFE72B
:103F200000E0FFE7019804B080BD000080B586B0D6
:103F30000590ADF81210ADF8102040F28410C2F2D6
:103F40000000006803900598BDF8101000F0D6FF3F
:103F50008DF807000598BDF8101002F017FA8DF8DB
:103F600006009DF80600C00750B1FFE79DF8071056
:103F700040F29C10C0F6020050F82100029011E0BF
:103F80009DF8070002F030F902464AF28151C0F66E
:103F900000014AF20950C0F60000002A18BF084686
:103FA0000290FFE70598029900F0E6F90390039864
:103FB00008B1FFE717E00598BDF8121000F056FAB7
:103FC0009DF80600C00768B9FFE70598BDF8101016
:103FD00000F02EFFADF804000598BDF8041000F0C5
:103FE00045FAFFE7FFE7039806B080BD80B58AB0C9
:103FF00084460C98CDF824C0ADF82210ADF82020EE
:10400000ADF81E30ADF81C0040F28410C2F2000082
:1040100000680690BDF82000BDF81E10884280F2AE
:10402000E580FFE70998BDF8201000F001FFADF82A
:1040300016000998BDF8201000F060FF8DF81500FB
:104040009DF8150000F0A6FFADF81200BDF81200B3
:104050000138ADF810000998BDF8221000F0E8FE14
:10406000ADF80E00BDF82000ADF80C00BDF816004C
:10407000ADF80A00BDF80E00BDF81610884200F039
:104080008B80FFE7BDF820000130ADF80800FFE7A6
:10409000BDF80800BDF81E10884267DAFFE70998EE
:1040A000BDF8081000F0C4FEADF806000998BDF890
:1040B000081000F0FDFCADF80400BDF80E00BDF8DE
:1040C0000610884211D0FFE7BDF80E00BDF80410BD
:1040D00088420AD0FFE7BDF80E00BDF81010084472
:1040E000BDF8061088423BD1FFE7BDF81C00B0F5D3
:1040F0007A6F07DBFFE740F28800C2F20000006839
:10410000069074E00998BDF81C10BDF80820FFF770
:104110000DFF0690069808B1FFE768E0BDF81C00A7
:104120000999BDF8082001EB4201A1F828020220FC
:1041300000F030FF0146BDF81C000844ADF81C003B
:104140000998BDF81C10013989B204F0A3FDBDF82F
:104150000800ADF80C00BDF80600ADF80A0005E057
:10416000BDF808000130ADF8080091E70998BDF8E6
:104170000E10BDF82020FFF7D9FE0690069808B172
:10418000FFE734E0BDF80E000999BDF8202001EBEF
:104190004201A1F82802FFE70998BDF82210013179
:1041A000BDF820200132BDF81E30BDF81CC0EE461F
:1041B000CEF800C089B292B2FFF718FF06900698B9
:1041C00008B1FFE713E0BDF816000999BDF82020FB
:1041D00001EB4201A1F82802BDF80A000999BDF8D7
:1041E0000C2001EB4201A1F82802FFE7FFE7069847
:1041F0000AB080BD80B586B005908DF8131040F2EE
:104200008410C2F2000000680390059802F0FAF8EA
:10421000002844D0FFE7059800F066FE8DF80B00FB
:1042200005989DF80B1003F07BFB0390039808B1F1
:10423000FFE735E09DF80B1040F28810C0F6020051
:1042400050F8210001900598019900F095F803902D
:10425000039808B1FFE723E00598009000F024FEE2
:104260000146009800F002F99DF81300C007A8B1BC
:10427000FFE705989DF80B1003F06EFA0390039882
:1042800008B1FFE70CE005989DF80B1003F05EFE07
:104290000390039808B1FFE702E0FFE7FFE7FFE7BD
:1042A000039806B080BD000080B584B00390ADF8DF
:1042B0000A10039800F0F0FDADF802000398BDF875
:1042C0000A10BDF80220FFF731FE0190019808B1F5
:1042D000FFE700E0FFE7019804B080BD82B00190E5
:1042E00000910198009900EB410142F63A1200203A
:1042F000885202B07047000080B584B00390ADF8DA
:104300000A108DF809200020ADF80600FFE7BDF87F
:10431000060000909DF8090000F03CFE0146009860
:10432000884215DAFFE70398BDF90A10014441F607
:104330009812885C01388854FFE7BDF80600013008
:10434000ADF80600BDF80A000130ADF80A00DEE75E
:1043500004B080BD7047000080B582B0019000912C
:104360000198406B30B1FFE70198406B009900F075
:104370008DF8FFE702B080BD80B584B00390029154
:1043800040F28410C2F20000006801900398406B74
:1043900070B1FFE70398FDF77DFD0190019830B9FA
:1043A000FFE70398406B029900F090F8FFE7FFE702
:1043B000019804B080BD000080B584B003900291E4
:1043C00040F28410C2F2000000680190039849F6A0
:1043D0000D51C0F60001FFF7CFFF0190019808B121
:1043E000FFE704E00398029900F004F8FFE7019862
:1043F00004B080BD80B584B0039002910398029907
:10440000896800F007F8019001980299886004B06B
:1044100080BD000080B584B0039002910398406B8A
:1044200000F0E6FC01900398406B30B1FFE7039881
:10443000406B029900F04AF8FFE7019804B080BD94
:1044400080B582B00190019801F0DCFF48B1FFE730
:104450000198009000F028FD0146009800F006F851
:10446000FFE7019803F022F902B080BD80B582B069
:10447000019000910198406B30B1FFE70198406BCB
:10448000009900F003F8FFE702B080BD82B0019010
:1044900000910098019B5A6803EB820101325A6037
:1044A000486102B07047000084B00390019300920D
:1044B0000098019A03994B6801EB83018A61486176
:1044C000039948680230486004B0704782B0019098
:1044D00000910098019B5A6803EB820101325A60F7
:1044E000486102B07047000080B586B00590049125
:1044F00040F28410C2F20000006803900498023079
:1045000004900598406B02F0A9F9049988422CD2D6
:10451000FFE7059800680499FDF72CFB02900298CC
:10452000D8B1FFE70598406B49F66151C0F600012C
:10453000FFF7CCFF0598406B0190029800F058FC03
:1045400001460198FFF7C2FF05990868496B03F01F
:10455000F7FF02980599486306E040F2A800C2F20E
:10456000000000680390FFE7FFE7039806B080BDF6
:1045700080B582B00190009101981830009904F044
:1045800027F802B080BD000080B584B0039002918E
:10459000029800680190039800680090FFE7009877
:1045A00090B1FFE700980199FDF74AFC40B1FFE7A1
:1045B000FFE7019804F036FE00200190FFE703E0DA
:1045C000009800680090EAE7009850B9FFE701986A
:1045D00000900398006800990860009803990860AB
:1045E000FFE700980299086004B080BD80B584B0F0
:1045F0000390039800680290FFE7029868B1FFE714
:10460000029800680190FFE7029804F00BFE00207A
:104610000290FFE701980290EFE70398183000F04E
:10462000A1F904B080BD000084B00390029102980B
:104630000190FFE7019868B1FFE701990020486009
:10464000019800680090009808B9FFE702E0009820
:104650000190EFE7019840B1FFE703988069019965
:104660000860029803998861FFE704B07047000072
:1046700081B0EFF3108072B60090FFE7FEE7000014
:1046800080B5ADF52B5D88B00DF10C0E0EF52B5CF1
:10469000CDF814C08C460599CDF810C08446049816
:1046A0000DF5005EDEF8E8EAC1F810C0C8600DF54F
:1046B000005E8EF8D72A4B6040F28410C2F20000F0
:1046C000006808600DA8069042F69821FCF771F882
:1046D000059906980A6912684FF42553D258C250BA
:1046E0000A69126842F66013D258C2500A69136808
:1046F00042F658129B58835082580C920A691268ED
:104700000B920A6910600A900A9A10600A690A9B63
:104710005A60496809680A9A91600DF5005EDEF8F2
:10472000E81A0A9AD1600A9A916811610A9A4FF0C0
:10473000FF311162FDF714FA0A9948630A98406B39
:1047400000285FD0FFE74FF425510DA840580DF524
:10475000005E9EF8D71A00EB8100406809900A9825
:10476000406B00F045FB08900A9809990222FDF77A
:1047700005FC014605980160006890B9FFE70A98BA
:10478000B0F8440042F660120DA98958884208D357
:10479000FFE7059940F2E400C2F2000000680860FB
:1047A000FFE70598006838BBFFE708980C996B464F
:1047B0000022DA609A605A601A60FDF7ABFB07903E
:1047C0000798C0B9FFE70DF5005E9EF8D70A04F020
:1047D000E7F9042806D1FFE705990C980068C96835
:1047E000086007E005990C9A10685268C9684A6029
:1047F0000860FFE7FFE7FFE70A98416B0DA803F0A9
:104800009FFE07E0059940F2A800C2F20000006890
:104810000860FFE742F658120DA80021815004F00D
:1048200077F905980B99026911600A9989684268BD
:10483000116000680DF52B5D08B080BD80B588B0B3
:1048400007900691059240F28410C2F200000068C1
:1048500004900798143003900398408AADF80A003A
:10486000FFE70398008B02280CD1FFE7039800684C
:104870000390039808B9FFE704E00398408AADF875
:104880000A00EEE7059806990880BDF90A00019034
:10489000FFE701980799498F88423CD2FFE70798C4
:1048A000019900EB4100B0F82802059988422DD10A
:1048B000FFE7069800880599884213D1FFE707981B
:1048C000BDF8041000F01AFB8DF803000798069954
:1048D0009DF80320FDF73AFA0490049808B1FFE729
:1048E0001AE00AE007980699098801F0C1FA0490D5
:1048F000049808B1FFE70FE0FFE7069800880799E2
:10490000019A01EB4201A1F82802FFE7FFE70198B5
:1049100001300190BDE7FFE7049808B080BD0000BA
:1049200080B586B00590049103920020029005980E
:1049300042F6541140580190FFE7019878B1FFE723
:104940000198C06D0090049A0198039990470290D5
:10495000029808B1FFE702E000980190EDE70298A5
:1049600006B080BD80B584B00390039800680290C3
:10497000FFE7029868B1FFE7029800680190FFE73F
:10498000029804F04FFC00200290FFE7019802908B
:10499000EFE703990020086004B080BD80B582B0C5
:1049A0000190FFE70198006804F03CFC01990020A9
:1049B0000860FFE7FFE70198406804F033FC0199C5
:1049C00000204860FFE702B080BD000080B582B0E3
:1049D0000190FFE70198C06B04F024FC01990020CE
:1049E000C863FFE700200090FFE700980199098C59
:1049F00088421EDAFFE70199009801EB80004069C8
:104A00008968884210D0FFE7FFE70198009900EB22
:104A10008100406904F006FC0198009900EB8101D7
:104A200000204861FFE7FFE7FFE7009801300090B2
:104A3000DBE701980430FFF7B1FF019890F83600EA
:104A4000C00750B1FFE7FFE70198C06804F0EAFB38
:104A500001990020C860FFE7FFE702B080BD0000B9
:104A600085B004900391029240F28410C2F20000DB
:104A700000680190049814300090FFE70298411EEE
:104A8000029168B1FFE7009800680090009830B983
:104A9000FFE740F25D20C0F60200019004E0EDE780
:104AA000009803990860FFE7019805B0704700007F
:104AB00080B584B00390ADF80A100398BDF80A10D1
:104AC00000F0B6F9ADF80800BDF808004FF6FF7128
:104AD000884212D0FFE70398BDF80A1000F00EFAE2
:104AE00000F058FA0138ADF80600BDF80610BDF820
:104AF00008000844ADF80800FFE7BDF8080004B05E
:104B000080BD000082B00190019820B1FFE70198BC
:104B1000C088009002E000200090FFE7009880B27B
:104B200002B0704782B00190019820B1FFE7019870
:104B30008088009002E000200090FFE7009880B29B
:104B400002B0704782B00190ADF8021005208DF8D8
:104B50000100019890B1FFE7BDF802000199C988F2
:104B600088420ADAFFE701988188BDF802201144E3
:104B70000844007A8DF80100FFE7FFE79DF8010087
:104B800002B0704782B00190ADF8021005208DF898
:104B90000100019880B1FFE7BDF802000199898802
:104BA000884208DAFFE70198BDF802100844007A4D
:104BB0008DF80100FFE7FFE79DF8010002B07047A4
:104BC00080B586B00590049100208DF80F00049800
:104BD0000190059800F04EF80146019888420ED2E7
:104BE000FFE70598406A808802900598406A02991C
:104BF000049A11440844007A8DF80F00FFE79DF8ED
:104C00000F0006B080BD000082B00190019840689E
:104C100020B1FFE701984068009005E040F69B0056
:104C2000C0F602000090FFE7009802B07047000055
:104C300083B001900091019818B1FFE7009818B96E
:104C4000FFE70020029012E00198806838B1FFE78A
:104C500000990120088001980830029007E001982F
:104C6000008C00990880019814300290FFE70298A8
:104C700003B0704782B001900020ADF802000198A7
:104C800058B1FFE70198406A30B1FFE70198406AE8
:104C9000C088ADF80200FFE7FFE7BDF8020002B0F0
:104CA0007047000080B584B00290029850B1FFE7D1
:104CB0000298418E0191FFF7DDFF014601980844FB
:104CC000039002E000200390FFE7039804B080BD4A
:104CD00082B001900020ADF80200019858B1FFE7C2
:104CE0000198406A30B1FFE70198406A8088ADF8CA
:104CF0000200FFE7FFE7BDF8020002B070470000C6
:104D000080B582B00190FFE7019942F63810085A49
:104D1000B1F84210884212DDFFE7019842F63811DF
:104D2000415A013989B201F021FB08B1FFE706E0E1
:104D3000019942F63812885A01388852E4E70198FE
:104D400042F63811405A02B080BD000081B0009098
:104D50000099488FC98C401A80B201B0704700009A
:104D600083B0ADF80600BDF80610080A00900020D8
:104D7000B0EB112F04D0FFE70098FC2812D027E0F9
:104D8000BDF80600FC280CD8FFE7BDF8060000EBD4
:104D900040014EF68800C0F6010000EBC100029011
:104DA00019E015E09DF80600ADF80600BDF8060014
:104DB0000B280CD8FFE7BDF8060000EB400140F2DD
:104DC0004000C0F6020000EBC100029003E0FFE7E4
:104DD00000200290FFE7029803B0704780B582B0D0
:104DE00001900198406B00F003F802B080BD000014
:104DF00082B00090009838B1FFE70098416800EB5E
:104E000081001430019002E000200190FFE701983A
:104E100002B0704782B0019000910198009900EBB8
:104E2000410042F63A11405A013880B202B0704750
:104E300082B00190ADF802104FF6FF70ADF800009F
:104E4000BDF802000199498F88420ADAFFE701980C
:104E5000BDF8021000EB4100B0F82802ADF80000E8
:104E6000FFE7BDF8000002B07047000083B0029079
:104E700002980068006842F6581140580190029864
:104E8000406A009000988188019800EBC100019071
:104E9000019803B07047000081B000900098408FE7
:104EA000013800B201B0704780B582B0019001981E
:104EB000FFF7F2FFADF802004FF6FF70ADF800000B
:104EC000BDF9020000280AD4FFE70198BDF90210DD
:104ED00000EB4100B0F82802ADF80000FFE7BDF894
:104EE000000002B080BD000080B582B00190019842
:104EF000002100F01FF802B080BD000082B00190D8
:104F0000ADF8021000208DF80100BDF802000199F3
:104F1000498F88420ADAFFE70198BDF80210084479
:104F200041F2C811405C8DF80100FFE79DF80100D7
:104F300002B0704783B00290ADF8061000208DF8E3
:104F40000500BDF806000130ADF806000298408F5C
:104F5000BDF80610884219DBFFE70298408FBDF8C4
:104F60000610401AADF80200BDF802000299098F40
:104F700088420ADBFFE70298BDF80210084441F2BC
:104F8000C811405C8DF80500FFE7FFE79DF80500BC
:104F900003B0704780B582B08DF807009DF8070018
:104FA00001F022F901460120002918BF022002B0B9
:104FB00080BD000092B01190109100200F900B90D6
:104FC000FFE7109800680F99C840002800F09B8107
:104FD000FFE70F99012088400E90109800680E9905
:104FE00008400D900D980E99884240F08881FFE7A7
:104FF000109840680790002851D0FFE707980128D3
:105000003AD0FFE7079802283FD0FFE70798032828
:105010005FD0FFE70798112832D0FFE707981228E2
:1050200038D0FFE707980021C1F21101884236D03D
:10503000FFE707980021C1F2120188422FD0FFE755
:1050400007980021C1F22101884228D0FFE7079884
:105050000021C1F22201884221D0FFE707980021F8
:10506000C1F2310188421AD0FFE707980021C1F24E
:105070003201884213D02FE01098C0680B902CE0CA
:105080001098C06804300B9027E01098C068083072
:105090000B9022E01098C0680C300B901DE0109827
:1050A000806818B9FFE704200B9011E01098806821
:1050B000012806D1FFE708200B900E98119908618E
:1050C00005E008200B900E9811994861FFE7FFE773
:1050D00003E000200B9000E0FFE70D98FF2803D8C5
:1050E000FFE71198069003E0119804300690FFE75F
:1050F00006980A900D98FF2804D8FFE70F988000C3
:10510000059006E00F996FF01F0000EB81000590FD
:10511000FFE7059809900A980068099A0F219140C5
:1051200088430B99914008430A9908601098C07908
:10513000C006002840F1E280FFE7FFE741F21800D7
:10514000C4F20200016841F001010160006800F052
:10515000010008900898FFE70F9820F0030008214D
:10516000C4F2010140580C900F9800F00300810038
:105170000F2000FA01F10C9888430C90119840F62A
:105180000001C4F20101884203D1FFE7002004902E
:1051900042E0119840F60041C4F20101884203D177
:1051A000FFE70120039034E0119841F20001C4F2BE
:1051B0000101884203D1FFE70220029026E0119806
:1051C00041F20041C4F20101884203D1FFE703200C
:1051D000019018E0119841F60001C4F201018842E3
:1051E00003D1FFE7042000900AE0119941F6004244
:1051F000C4F201020620914208BF05200090FFE79B
:1052000000980190FFE701980290FFE70298039051
:10521000FFE703980490FFE704980F9901F003015A
:10522000890000FA01F10C9808430C900C980F9932
:1052300021F003010822C4F20102885010988079FD
:10524000C00748B1FFE70D9A40F20041C4F20101E6
:1052500008681043086008E00D9A40F20041C4F26B
:105260000101086890430860FFE710988079800783
:10527000002809D5FFE70D9A40F20441C4F201016C
:1052800008681043086008E00D9A40F20441C4F237
:105290000101086890430860FFE710988079C00614
:1052A000002809D5FFE70D9A40F20841C4F2010138
:1052B00008681043086008E00D9A40F20841C4F203
:1052C0000101086890430860FFE710988079800624
:1052D000002809D5FFE70D9A40F20C41C4F2010104
:1052E00008681043086008E00D9A40F20C41C4F2CF
:1052F0000101086890430860FFE7FFE7FFE70F98A8
:1053000001300F905DE612B07047000082B001904E
:10531000ADF802108DF801209DF8010028B1FFE7DB
:10532000BDF802000199086105E0BDF80200000423
:1053300001990861FFE702B07047000040F2881051
:10534000C2F200000068704740F21810C2F200007C
:10535000027840F28811C2F2000108681044086027
:105360007047000080B542F20001C4F202010868F3
:1053700040F010000860032000F08CF80F2000F0CF
:1053800005F800F03BF8002080BD000080B582B039
:10539000009040F23400C2F20000006840F21811A0
:1053A000C2F200010A784FF47A71B1FBF2F1B0FB5E
:1053B000F1F000F053FD20B1FFE701208DF8070068
:1053C00018E000980F280DD8FFE700994FF0FF3044
:1053D000002200F045F8009840F21C11C2F20001D2
:1053E000086003E001208DF8070003E000208DF83D
:1053F0000700FFE79DF8070002B080BD83B0FFE71C
:1054000041F21800C4F20200016841F0010101609C
:10541000006800F0010002900298FFE7FFE741F208
:105420001C00C4F20200016841F080510160006874
:1054300000F0805001900198FFE7FFE70421C4F2DB
:10544000010108680090009820F0E060009000984A
:1054500040F08060009000980860FFE703B070475C
:1054600080B586B08DF81700049103920020029059
:1054700003F0D8FC02909DF917000190029804995E
:10548000039A01F05BF90146019803F0D3FC06B0E2
:1054900080BD000080B582B00190019803F0ECFC63
:1054A00002B080BD80B584B002900191029820B90D
:1054B000FFE701208DF80F001BE1019842F2000187
:1054C000C4F20201096801F00701884216D9FFE71A
:1054D00042F20000C4F20200016821F00701019AC3
:1054E00011430160006800F007000199884204D070
:1054F000FFE701208DF80F00FBE0FFE7029800783E
:10550000800700282AD5FFE7029800784007002886
:1055100009D5FFE741F20401C4F20201086840F432
:10552000E0600860FFE7029800780007002809D5CE
:10553000FFE741F20401C4F20201086840F4605040
:105540000860FFE741F20401C4F20201086820F09C
:10555000F000029A926810430860FFE70298007812
:10556000C007002860D0FFE70298406801280ED1EC
:10557000FFE741F20000C4F2020000688003002847
:1055800004D4FFE701208DF80F00B2E021E002987B
:10559000406802280ED1FFE741F20000C4F2020089
:1055A00000688001002804D4FFE701208DF80F0077
:1055B0009FE00DE041F20000C4F2020000688007A5
:1055C000002804D4FFE701208DF80F0091E0FFE7E9
:1055D000FFE741F20401C4F20201086820F0030071
:1055E000029A526810430860FFF7A8FE0090FFE798
:1055F00041F20400C4F20200006800F00C000299BD
:105600004968B0EB810F0ED0FFE7FFF797FE0099D6
:10561000401A41F28931884204D3FFE703208DF814
:105620000F0066E0E4E7FFE7019842F20001C4F2F0
:105630000201096801F00701884216D2FFE742F231
:105640000000C4F20200016821F00701019A114331
:105650000160006800F007000199884204D0FFE76C
:1056600001208DF80F0044E0FFE702980078400722
:1056700000280CD5FFE741F20401C4F202010868DA
:1056800020F4E060029AD26810430860FFE70298B5
:105690000078000700280DD5FFE741F20401C4F2AD
:1056A0000201086820F46050029A126940EAC200C0
:1056B0000860FFE700F022F841F20401C4F20201A1
:1056C0000968C9B20A094EF62601C0F60101895CD3
:1056D000C84040F23401C2F20001086040F21C10E0
:1056E000C2F200000068FFF751FE00208DF80F00A5
:1056F000FFE79DF80F0004B080BD00008BB040F6BE
:105700000E70C1F210000A9040F60A30C0F60C503C
:10571000099040F20670C0F60810089040F202307E
:10572000C0F20450079040F20120ADF81A000020AA
:105730000590049003900290019041F20400C4F29D
:10574000020000680590059800F00C0001460091E9
:10575000E0B3FFE70098042804D0FFE7009808288A
:1057600006D034E041F20020C0F27A00019034E02B
:105770000598C0F3834107A8405C02909DF816008D
:10578000C007C0B1FFE741F20400C4F202000068A4
:1057900000F400310DF11A0040EA51400078049005
:1057A000029841F20021C0F27A0148430499B0FB0B
:1057B000F1F0039007E0029840F60011C0F23D01BD
:1057C00048430390FFE70398019006E0FFE741F2AA
:1057D0000020C0F27A000190FFE701980BB07047FB
:1057E00080B586B00490049820B9FFE701208DF8B9
:1057F00017002EE304980078C007002800F0AE8060
:10580000FFE741F20400C4F20200006800F00C005F
:10581000042813D0FFE741F20400C4F2020000683C
:1058200000F00C0008281BD1FFE741F20400C4F28D
:1058300002000068C003002812D5FFE741F2000013
:10584000C4F2020000688003002808D5FFE704982E
:10585000406820B9FFE701208DF81700F9E27CE0ED
:10586000FFE704984068B0F5803F09D1FFE741F2B7
:105870000001C4F20201086840F48030086032E0A0
:105880000498406868B9FFE741F20001C4F20201E0
:10589000086820F480300860086820F480200860E0
:1058A00020E004984068B0F5A02F0DD1FFE741F249
:1058B0000001C4F20201086840F480200860086812
:1058C00040F4803008600CE041F20001C4F20201B3
:1058D000086820F480300860086820F480200860A0
:1058E000FFE7FFE7FFE7FFE704984068D0B1FFE775
:1058F000FFF724FD0390FFE741F20000C4F202002D
:105900000068800300280CD4FFE7FFF717FD039918
:10591000401A652804D3FFE703208DF8170098E2AA
:10592000EAE719E0FFF70AFD0390FFE741F2000004
:10593000C4F202000068800300280CD5FFE7FFF7DF
:10594000FDFC0399401A652804D3FFE703208DF876
:1059500017007EE2EAE7FFE7FFE7FFE70498007839
:105960008007002840F18D80FFE741F20400C4F277
:105970000200006810F00C0F13D0FFE741F20400A2
:10598000C4F20200006800F00C00082829D1FFE7EB
:1059900041F20400C4F202000068C003002820D4D1
:1059A000FFE741F20000C4F202000068800700280F
:1059B00009D5FFE704980069012804D0FFE701201A
:1059C0008DF8170045E241F20001C4F202010868B7
:1059D00020F0F800049A526940EAC2000860FFE72C
:1059E0004EE00498006958B3FFE70021C4F2422159
:1059F00001200860FFF7A2FC0390FFE741F20000DE
:105A0000C4F202000068800700280CD4FFE7FFF70B
:105A100095FC0399401A032804D3FFE703208DF86F
:105A2000170016E2EAE741F20001C4F20201086839
:105A300020F0F800049A526940EAC20008601EE0B3
:105A40000021C4F2422100200860FFF777FC039098
:105A5000FFE741F20000C4F202000068800700285E
:105A60000CD5FFE7FFF76AFC0399401A032804D31B
:105A7000FFE703208DF81700EBE1EAE7FFE7FFE718
:105A8000FFE7049800780007002848D5FFE704984E
:105A9000806918B3FFE740F28041C4F2422101203F
:105AA0000860FFF74BFC0390FFE741F22400C4F2CB
:105AB00002000068800700280CD4FFE7FFF73EFCD7
:105AC0000399401A032804D3FFE703208DF8170039
:105AD000BFE1EAE7012002F061FA1FE040F28041F5
